:0200000407FFF4
:10F00000005000208D940008B73E0008BD3E000867
:10F01000C33E0008C93E0008CF3E000800000000C3
:10F02000000000000000000000000000D53E0008C5
:10F03000E13E000800000000ED3E0008F93E000837
:10F04000D5940008D5940008D5940008D5940008FC
:10F05000D5940008D594000837400008D5940008DE
:10F06000D5940008D594000845400008093F0008E1
:10F070001D3F0008313F0008453F0008593F000888
:10F08000D5940008D59400086D3F0008D594000879
:10F09000D5940008D5940008D594000829400008AC
:10F0A000D5940008893F00089D3F0008B13F000843
:10F0B000C53F0008D93F0008ED3F0008D59400087F
:10F0C000D5940008D5940008D5940008D59400087C
:10F0D000D594000801400008D594000815400008A8
:10F0E000D5940008D5940008D594000800000000CD
:10F0F0000000000000000000000000000000000010
:0CF1000000000000000000005FF808F1B3
:10F10C000348044B834202D0034B03B118477047AA
:10F11C006002002060020020000000000548064943
:10F12C000B1AD90F01EBA301491002D0034B03B109
:10F13C0018477047600200206002002000000000A9
:10F14C0010B5064C237843B9FFF7DAFF044B13B123
:10F15C000448AFF300800123237010BD600200202F
:10F16C00000000001C98000808B5044B1BB10449B2
:10F17C000448AFF30080BDE80840CFE70000000072
:10F18C00640200201C98000870B50D4E0D4D761BC6
:10F19C00B61006D0002455F8043B01349847A6421B
:10F1AC00F9D1094E094D0AF033FB761BB61006D087
:10F1BC00002455F8043B01349847A642F9D170BDA0
:10F1CC00E8A00008E8A00008ECA00008E8A00008EF
:10F1DC00844641EA000313F0030349D1403A23D398
:10F1EC000B6803604B6843608B688360CB68C360BB
:10F1FC000B6903614B6943618B698361CB69C361A3
:10F20C000B6A03624B6A43628B6A8362CB6AC3628A
:10F21C000B6B03634B6B43638B6B8363CB6BC36372
:10F22C0040304031403ADBD230320BD30B680360B4
:10F23C004B6843608B688360CB68C36010301031BF
:10F24C00103AF3D20C3205D351F8043B40F8043B8E
:10F25C00043AF9D2043208D0D2071CBF11F8013B92
:10F26C0000F8013B01D30B8803806046704700BF58
:10F27C00082A13D38B07B1D010F00303AED0C3F11F
:10F28C000403D21ADB071CBF11F8013B00F8013B49
:10F29C00A4D331F8023B20F8023B9FE7043AD9D3C0
:10F2AC00013A11F8013B00F8013BF9D20B780370DD
:10F2BC004B7843708B7883706046704720F0030165
:10F2CC0010F00300C0F1000051F8043B00F1040CF5
:10F2DC004FEACC0C6FF000021CBF22FA0CF2134365
:10F2EC004FF0010C4CEA0C2C4CEA0C4CA3EB0C022E
:10F2FC0022EA030212EACC1204BF51F8043B043098
:10F30C00F4D0C2F1000102EA0102B2FA82F2C2F1B7
:10F31C001F0200EBD20070474FF0FF0C1CEAD052DA
:10F32C001EBF1CEAD15392EA0C0F93EA0C0F6FD05C
:10F33C001A4480EA010C400218BF5FEA41211ED03A
:10F34C004FF0006343EA501043EA5111A0FB013126
:10F35C000CF00040B1F5000F3EBF490041EAD371FB
:10F36C005B0040EA010062F17F02FD2A1DD8B3F177
:10F37C00004F40EBC25008BF20F00100704790F0E6
:10F38C00000F0CF0004C08BF49024CEA502040EA38
:10F39C0051207F3AC2BFD2F1FF0340EAC2507047FE
:10F3AC0040F400004FF00003013A5DDC12F1190F3C
:10F3BC00DCBF00F000407047C2F10002410021FAAE
:10F3CC0002F1C2F1200200FA02FC5FEA310040F1C6
:10F3DC00000053EA4C0308BF20EADC70704792F03F
:10F3EC00000F00F0004C02BF400010F4000F013A77
:10F3FC00F9D040EA0C0093F0000F01F0004C02BF72
:10F40C00490011F4000F013BF9D041EA0C018FE7E0
:10F41C000CEAD15392EA0C0F18BF93EA0C0F0AD0E6
:10F42C0030F0004C18BF31F0004CD8D180EA01000C
:10F43C0000F00040704790F0000F17BF90F0004FA5
:10F44C00084691F0000F91F0004F14D092EA0C0F87
:10F45C0001D142020FD193EA0C0F03D14B0218BF1A
:10F46C00084608D180EA010000F0004040F0FE4060
:10F47C0040F40000704740F0FE4040F440007047FC
:10F48C0080F0004002E000BF81F0004142001FBF4D
:10F49C005FEA410392EA030F7FEA226C7FEA236C56
:10F4AC006AD04FEA1262D2EB1363C1BFD21841404B
:10F4BC0048404140B8BF5B42192B88BF704710F0E1
:10F4CC00004F40F4000020F07F4018BF404211F084
:10F4DC00004F41F4000121F07F4118BF494292EAEC
:10F4EC00030F3FD0A2F1010241FA03FC10EB0C0018
:10F4FC00C3F1200301FA03F100F0004302D54942A5
:10F50C0060EB4000B0F5000F13D3B0F1807F06D351
:10F51C0040084FEA310102F10102FE2A51D2B1F149
:10F52C00004F40EBC25008BF20F0010040EA03003E
:10F53C007047490040EB0000013A28BFB0F5000FBE
:10F54C00EDD2B0FA80FCACF1080CB2EB0C0200FA74
:10F55C000CF0AABF00EBC25052421843BCBFD040C3
:10F56C001843704792F0000F81F4000106BF80F43D
:10F57C0000000132013BB5E74FEA41037FEA226C00
:10F58C0018BF7FEA236C21D092EA030F04D092F0CB
:10F59C00000F08BF0846704790EA010F1CBF0020FF
:10F5AC00704712F07F4F04D1400028BF40F000405C
:10F5BC00704712F100723CBF00F50000704700F07C
:10F5CC00004343F0FE4040F4000070477FEA2262A3
:10F5DC0016BF08467FEA23630146420206BF5FEA74
:10F5EC00412390EA010F40F4800070474FF0000374
:10F5FC0004E000BF10F0004348BF40425FEA000C3B
:10F60C0008BF704743F0964301464FF000001CE0E2
:10F61C0050EA010208BF70474FF000030AE000BF38
:10F62C0050EA010208BF704711F0004302D5404276
:10F63C0061EB41015FEA010C02BF844601460020E8
:10F64C0043F0B64308BFA3F18053A3F50003BCFA03
:10F65C008CF2083AA3EBC25310DB01FA02FC6344B0
:10F66C0000FA02FCC2F12002BCF1004F20FA02F2B7
:10F67C0043EB020008BF20F00100704702F12002AA
:10F68C0001FA02FCC2F1200250EA4C0021FA02F20B
:10F69C0043EB020008BF20EADC7070474FEA4002DF
:10F6AC00B2F1FE4F0FD34FF09E03B3EB12620DD9A4
:10F6BC004FEA002343F0004310F0004F23FA02F00E
:10F6CC0018BF404270474FF00000704712F1610FB5
:10F6DC0001D1420205D110F0004008BF6FF000408C
:10F6EC0070474FF00000704780B500AF0D4B1B68A2
:10F6FC0001330C4A13600C4B19680C4BA3FB012310
:10F70C00DA0813469B0013445B00CA1A002A02D184
:10F71C00074801F03BF9044B1B680133024A1360A4
:10F72C0000BF80BD7C02002080020020CDCCCCCC60
:10F73C001406002080B582B000AF144B5B69134AED
:10F74C0043F001035361114B5B6903F001037B60D0
:10F75C007B68002203210D2007F0F9FC0D2007F037
:10F76C0012FD002203210E2007F0F1FC0E2007F001
:10F77C000AFD002203210F2007F0E9FC0F2007F0FF
:10F78C0002FD00BF0837BD4680BD00BF001002401F
:10F79C0080B594B000AF0223BB620123BB6310237E
:10F7AC00FB6302237B640023BB644FF46013FB6494
:10F7BC0007F12803184606F017FA0346002B03D06E
:10F7CC004C21214800F05EF90F237B610223BB61C1
:10F7DC000023FB614FF480633B6200237B6207F1E3
:10F7EC0014030221184606F07FFC0346002B03D0BD
:10F7FC005921154800F046F902237B604FF4004371
:10F80C00FB603B1D184606F009FE0346002B03D097
:10F81C005F210D4800F036F906F0B0FD03460B4AA7
:10F82C00A2FB03239B09184607F0BBFC042007F03E
:10F83C00C5FC002202214FF0FF3007F088FC00BF0E
:10F84C005037BD4680BD00BF34980008D34D6210C0
:10F85C0080B500AF114B124A1A60104B4FF4E132D5
:10F86C005A600E4B00229A600C4B0022DA600B4B54
:10F87C0000221A61094B0C225A61084B00229A6132
:10F88C00064B0022DA61054809F0B2F80346002B5A
:10F89C0001D000F0F0F800BF80BD00BF340700209D
:10F8AC000038014080B500AF124B134A1A60114B5F
:10F8BC004FF4E1325A600F4B00229A600D4B00223C
:10F8CC00DA600C4B00221A610A4B0C225A61094B6C
:10F8DC0000229A61074B0022DA61064809F03BF8D6
:10F8EC000346002B03D09421044800F0CBF800BF52
:10F8FC0080BD00BFD40500200048004034980008AB
:10F90C0080B588B000AF07F1100300221A605A606E
:10F91C009A60DA60454B9B69444A43F00403936157
:10F92C00424B9B6903F00403FB60FB683F4B9B69F4
:10F93C003E4A43F0080393613C4B9B6903F0080378
:10F94C00BB60BB68394B9B69384A43F01003936129
:10F95C00364B9B6903F010037B607B68334B9B69D0
:10F96C00324A43F020039361304B9B6903F0200330
:10F97C003B603B684FF480433B6100237B61002379
:10F98C00BB6107F110031946294806F0C1FE01229C
:10F99C004FF40041264807F056F84FF400433B6102
:10F9AC0001237B610023BB610223FB6107F1100380
:10F9BC0019461F4806F0ACFE002202211D4807F034
:10F9CC0042F802233B6101237B610023BB610223CC
:10F9DC00FB6107F110031946164806F099FE402307
:10F9EC003B6112237B610023BB610223FB6100227C
:10F9FC004FF40041104807F026F84FF400433B61E8
:10FA0C0011237B610023BB610223FB6107F110030F
:10FA1C001946094806F07CFE00221021074807F021
:10FA2C0012F800BF2037BD4680BD00BF0010024059
:10FA3C00001001400014014000080140000C01407E
:10FA4C0080B582B000AF78607B68054A934202D1E2
:10FA5C00034809F05DFA00BF0837BD4680BD00BF02
:10FA6C003407002080B483B000AF786000BF0C373F
:10FA7C00BD4680BC704780B500AF72B600BF00F0C9
:10FA8C00C1FAFCE780B582B000AF7860396000F055
:10FA9C00B9FAFCE7F0B591B00EAF06F01FF8FFF71E
:10FAAC0077FEFFF72DFFFFF745FEFFF7D1FEFFF7BF
:10FABC00F9FE684B012283F82820664B00221A605D
:10FACC00644B4FF4FA325A62624B142283F82220B0
:10FADC00604B47F230529A805E4B4FF47A721A8226
:10FAEC005C4B47F23052DA605A4802F05DF85A4BE0
:10FAFC0047F230529A80584B14221A77564B42F2E6
:10FB0C001072DA80554E6D4606F110040FCC0FC5FD
:10FB1C000FCC0FC594E80F0085E80F0096E80F0096
:10FB2C0003F05CFC03F0D6FB4A4B5B6A4A4A136158
:10FB3C004A4E6D4606F10C040FCC0FC50FCC0FC509
:10FB4C000FCC0FC523682B6096E80E00424803F0DB
:10FB5C000FFD414BB3F904203E4B9A803E4BDB68C2
:10FB6C003C4A13603C4B1A7D3A4B83F828203C4BA3
:10FB7C001A683C4B1B689A42D6D03A4B19683A4BE0
:10FB8C00A3FB01231A0913469B0013449B00CA1ABA
:10FB9C00002AC9D1334B1B68314A13602E4803F03D
:10FBAC0017FB2D4B93F909202A4BDA742A4B93F946
:10FBBC001C20284B83F822202C4B1A682B4B1B68DB
:10FBCC00DB11D31A294A1360224BDB8A1A46274BC6
:10FBDC001B681344254A1360244B1B68DA11134627
:10FBEC00DB009B1A5B007B601B4A7B6813601A4B23
:10FBFC001B68184A9360184B9B69002B04D0164B5A
:10FC0C009B690133144A9361124B5B8B1A46134662
:10FC1C009B001344DB0013441B125AB20E4B1A7296
:10FC2C00134B1B780133DAB2114B1A70104B1B7843
:10FC3C000D2B7FF679AF0E4B00221A70054BD96A4B
:10FC4C00044B1B6B262202FB03F31A46094804F0F3
:10FC5C001FFA69E7140600207407002034070020FF
:10FC6C00840200207C020020CDCCCCCC8802002069
:10FC7C008C0200204498000880B483B000AFC7E920
:10FC8C000001D7E900014FF000024FF000030A0019
:10FC9C00CB173B68DB179A420CD0D7E900014FF029
:10FCAC0000024FF00003CA17CB17134683F0004332
:10FCBC00DB4300E03B6818460C37BD4680BC704700
:10FCCC00B0B582B000AF786039607B6818464FEAF7
:10FCDC00E0713B681A464FEAE273841841EB030566
:10FCEC0020462946FFF7C8FF034618460837BD468D
:10FCFC00B0BDB0B582B000AF786039607B68184693
:10FD0C004FEAE0713B681A464FEAE273841A61EBE2
:10FD1C00030520462946FFF7AFFF03461846083770
:10FD2C00BD46B0BD80B586B000AFF860B9607A60F2
:10FD3C003B607B68FA681A60FB681A464FEAE2730C
:10FD4C001D4901FB03F0002101FB02F101441A489B
:10FD5C00A2FB002319440B464FF000004FF00001AA
:10FD6C00900F40EA8300991703467B61BB681A46E3
:10FD7C004FEAE273114901FB03F0002101FB02F190
:10FD8C0001440E48A2FB002319440B464FF000001F
:10FD9C004FF00001900F40EA8300991703463B6136
:10FDAC0039697869FFF78CFF02463B681A6000BF1F
:10FDBC001837BD4680BD00BF8B4EF324169DE64917
:10FDCC00B0B588B000AFF860B9607A603B60FB6892
:10FDDC0018464FEAE0717B6B1A464FEAE27302FB5E
:10FDEC0001F500FB03F42C44A0FB0223E1180B46A5
:10FDFC004FF000004FF00001D00F40EA4300D9173C
:10FE0C000346FB61BB6818464FEAE0713B6B1A4630
:10FE1C004FEAE27302FB01F500FB03F42C44A0FB58
:10FE2C000223E1180B464FF000004FF00001D00FF9
:10FE3C0040EA4300D9170346BB61FB6818464FEAFA
:10FE4C00E0713B6B1A464FEAE27302FB01F500FBD3
:10FE5C0003F42C44A0FB0223E1180B464FF00000E6
:10FE6C004FF00001D00F40EA4300D91703467B61E5
:10FE7C00BB6818464FEAE0717B6B1A464FEAE27397
:10FE8C0002FB01F500FB03F42C44A0FB0223E11858
:10FE9C000B464FF000004FF00001D00F40EA43003A
:10FEAC00D91703463B61B969F869FFF709FF0246A8
:10FEBC007B681A6079693869FFF71BFF02463B685B
:10FECC001A6000BF2037BD46B0BDB0B588B000AFDA
:10FEDC00F860B9607A603B60FB6818464FEAE071E5
:10FEEC007B6B1A464FEAE27302FB01F500FB03F44D
:10FEFC002C44A0FB0223E1180B464FF000004FF0FE
:10FF0C000001D00F40EA4300D9170346FB61BB68E0
:10FF1C0018464FEAE0713B6B1A464FEAE27302FB5C
:10FF2C0001F500FB03F42C44A0FB0223E1180B4663
:10FF3C004FF000004FF00001D00F40EA4300D917FA
:10FF4C000346BB61FB6818464FEAE0713B6B1A46EF
:10FF5C004FEAE27302FB01F500FB03F42C44A0FB17
:10FF6C000223E1180B464FF000004FF00001D00FB8
:10FF7C0040EA4300D91703467B61BB6818464FEA39
:10FF8C00E0717B6B1A464FEAE27302FB01F500FB52
:10FF9C0003F42C44A0FB0223E1180B464FF00000A5
:10FFAC004FF00001D00F40EA4300D91703463B61E4
:10FFBC00B969F869FFF79DFE02467B681A6079699A
:10FFCC003869FFF77DFE02463B681A6000BF203798
:10FFDC00BD46B0BD80B582B000AF7860396072B6F6
:10FFEC0000BF00F00FF8FCE780B483B000AF78607E
:04FFFC00034B012290
:020000040800F2
:100000001A7000BF0C37BD4680BC7047D402002078
:1000100080B400AF044B5B6C034A23F40043536489
:1000200000BFBD4680BC7047002C014080B400AFCB
:10003000044B5B6C034A23F40043536400BFBD468A
:1000400080BC7047002C014080B400AF044B5B6C57
:10005000034A43F40043536400BFBD4680BC70476D
:10006000002C014080B400AF064B5B6C03F40043EE
:10007000002B14BF01230023DBB21846BD4680BC11
:10008000704700BF002C014080B487B000AF78609B
:1000900039603A687B68D31A7B617B699B123B614C
:1000A0007B699A12264B1B681344254A1360254B23
:1000B0009B144FF4FA7202FB03F3234A128893FB5A
:1000C000F2F31B04FB601E4B1B68FA689A4202DACB
:1000D0001B4AFB6813601B4B9B144FF4FA7202FB24
:1000E00003F3194A128893FBF2F35B421B04FB6093
:1000F000134B1B68FA689A420DDD124B9B144FF4A8
:10010000FA7202FB03F3104A128893FBF2F35B428C
:100110001B040B4A13600A4B1B683A691344BB600B
:100120007B68002B05D13B68002B02D1044B0022D9
:100130001A60BB6818461C37BD4680BC704700BFBC
:10014000EC02002055555515D408002080B584B028
:1001500000AF0346FB80FB88102B06D0FB88202BCA
:1001600003D0FB88012B40F0B181AA4B9B68DBB226
:100170009B00DBB203F00403DAB2A64B9B681B09B9
:10018000DBB203F00303DBB21343DAB2A24B1A7003
:10019000A14B1A78A14B1B789A4200F096819F4B95
:1001A0001B781A46920013445B00DAB29A4B1B7814
:1001B0001344DAB29A4B1A709A4B93F8363083F0A4
:1001C0000103DBB2002B03D0934B1A78934B1A70C8
:1001D000954B1B685B6AFB81FB89642B1FD9934A93
:1001E000FB891380924B1A68914B1B68DB10D31A62
:1001F0008F4A13608D4B1B881A468D4B1B68134426
:100200008B4A13608A4B1B68DB109AB2894B1A80A9
:10021000854B1B6800225A62874B00221A70804B64
:100220001B780D3B332B00F2388101A252F823F0EA
:100230005B0300089B040008690400089B04000895
:100240009B0400089B0400089B0400089B04000812
:100250009B0400089B040008E10300089B040008BD
:100260009B040008990300089B0400089B040008F5
:100270009B0400089B040008FD0300087D030008A0
:100280009B0400089B0400089B0400089B040008D2
:100290009B0400089B0400089B0400089B040008C2
:1002A0009B0400089B0400089B0400089B040008B2
:1002B00023030008B50300089B0400089B04000802
:1002C0009B0400089B0400083F0300089B040008EF
:1002D0009B0400087F0400089B0400089B0400089E
:1002E0009B0400089B0400089B0400089B04000872
:1002F0009B040008CB0300089B04000801030008CE
:100300004E4B1B684E4A13604E4BB3F90030DBB2C4
:100310005B42DBB25AB24C4B1A704C4B00221A8033
:10032000BBE04B4B1B68464A1360464BB3F90030A9
:10033000DBB25B42DBB25AB2434B1A70ADE0454BC5
:100340001B683F4A13603F4BB3F90030DBB25B429E
:10035000DBB25AB23C4B1A709FE03F4B1B68384AE5
:100360001360384BB3F90030DBB25B42DBB25AB2F8
:10037000354B1A70394B00221A808EE0384B1B68BF
:100380002F4A13602F4BB3F90030DBB25B42DBB274
:100390005AB22D4B1A7080E0324B1B68284A13600A
:1003A000284BB3F90030DBB25B42DBB25AB2264BCA
:1003B0001A7072E0214B1B68214A1360214BB3F97C
:1003C00000305AB2204B1A7067E0264B1B681C4A5B
:1003D00013601C4BB3F900305AB21B4B1A705CE02F
:1003E0001F4B1B68164A1360164BB3F900305AB204
:1003F000154B1A70194B00221A804EE0164B1B68E1
:100400000F4A13600F4BB3F900305AB20E4B1A70FB
:1004100043E000BF000C0140920200209302002044
:100420009402002048080020CC090020D4080020B5
:100430002000002010000020BC020020B00200209C
:10044000800800201400002012000020CA020020B2
:10045000B8020020B4020020A4020020C80200203C
:10046000A8020020AC0200201A4B1B681A4A136035
:100470001A4BB3F900305AB2194B1A700DE0194BF0
:100480001B68154A1360154BB3F900305AB2144B70
:100490001A70154B00221A8000BF144B93F83330AA
:1004A000012B13D1124B1A680B4B1B68D31A114A3C
:1004B00013600F4B1B68084A126811461846FFF775
:1004C000E3FD03460C4A136000E000BF1037BD4651
:1004D00080BD00BFB402002080080020140000206E
:1004E00012000020B8020020CA02002048080020A4
:1004F00098020020A00200209C02002080B500AFDE
:100500001020FFF723FE1C4B1B78013B052B2DD839
:1005100001A252F823F000BF590500083105000878
:1005200063050008450500084F0500083B05000865
:10053000124B1B68124A136018E0124B1B68104ADA
:10054000136013E0104B1B680D4A13600EE00F4B55
:100550001B680B4A136009E00D4B1B68084A1360C7
:1005600004E00C4B1B68064A136000BF044B1B6879
:10057000094A136000BF80BD92020020A80200203B
:1005800080080020AC020020B0020020B802002049
:10059000B4020020A40200209C07002080B483B095
:1005A00000AF78607B684FF4617202FB03F3044A8A
:1005B000B2FBF3F35BB218460C37BD4680BC704704
:1005C000A083BD0080B582B000AFFFF73DFDAF4B0B
:1005D000012283F83620AE4B4FF000421A60AD4B3B
:1005E00001221A80A94BC822DA60A84B01229A6026
:1005F000052005F0DBFA00237B60C6E0A44B1B68F6
:1006000003F5360303F66133A14A1360052005F0B4
:10061000CDFAA14B1A78A14B1B789A4200F0B28018
:100620009F4B1B780D3B332B00F2A88001A252F8A0
:1006300023F000BF230700087D07000869070008B2
:100640007D0700087D0700087D0700087D0700087A
:100650007D0700087D0700087D0700085507000892
:100660007D0700087D070008370700087D070008A0
:100670007D0700087D0700087D0700085F07000868
:100680002D0700087D0700087D0700087D0700088A
:100690007D0700087D0700087D0700087D0700082A
:1006A0007D0700087D0700087D0700087D0700081A
:1006B0007D0700080F070008410700087D070008B4
:1006C0007D0700087D0700087D070008190700085E
:1006D0007D0700087D070008730700087D070008F4
:1006E0007D0700087D0700087D0700087D070008DA
:1006F0007D0700087D0700084B0700087D070008FC
:1007000005070008624B1B68664A136036E0604BC1
:100710001B68654A136031E05D4B1B68634A1360D8
:100720002CE05B4B1B68624A136027E0584B1B6848
:10073000604A136022E0564B1B685F4A13601DE05D
:10074000534B1B68574A136018E0514B1B685A4AB9
:10075000136013E04E4B1B68564A13600EE04C4B7F
:100760001B68534A136009E0494B1B684F4A1360EA
:1007700004E0474B1B684C4A136000BF474B1A7894
:10078000454B1A707B6801337B607B68B3F5876FDC
:10079000FFF434AFFFF74AFC484B40F2FF325A6394
:1007A000464B40F2FF329A63444B40F2FF32DA6329
:1007B000364B002283F83620344B00221A60334B2C
:1007C00000225A60314B0022DA61304B00221A625B
:1007D0003B4B3C4A1A6006F083FD3B4B93F90030DB
:1007E000012B07D10121002002F0FAF8294B012248
:1007F0001A8008E04FF0FF31002002F0F1F8254B9D
:100800004FF6FF721A80284B1B681B141BB2194647
:10081000012002F0E5F8254B1B681B141BB219469A
:10082000022002F0DDF8224B1B681B141BB2194694
:10083000032002F0D5F81F4B1B681B141BB219468E
:10084000042002F0CDF81C4B1B681B141BB2194688
:10085000052002F0C5F8134B1B681B141BB2194688
:10086000062002F0BDF806F061FD084B002283F877
:10087000362005F091F903469AB2144B1A80034BC7
:1008800014229A8600BF0837BD4680BD4808002064
:100890009C070020140000209302002092020020F8
:1008A00094020020B0020020B8020020B402002010
:1008B000A4020020A8020020AC020020002C01406D
:1008C0001800002040420F0012000020DC0200202F
:1008D00080B483B000AF78607B685A2202FB03F3D8
:1008E000044AB2FBF3F31BB218460C37BD4680BC7A
:1008F000704700BF4024670780B483B000AF034651
:10090000FB7197F907304FF4617202FB03F30B4A56
:1009100092FBF3F30A4A136097F9073002334FF45E
:10092000617202FB03F3054A92FBF3F3054A13607D
:1009300000BF0C37BD4680BC704700BFA083BD0020
:10094000CC020020D002002080B487B000AFF86055
:10095000B9607A603B60FB687A6802FB03F3262289
:1009600002FB03F3DB127B61BB683A6802FB03F313
:10097000262202FB03F3DB123B613B6983EAE3724D
:10098000A2EBE3727B69002BB8BF5B4213441846AD
:100990001C37BD4680BC704790B587B002AF786009
:1009A0007B68FB60FB6893F828206F4B83F832204C
:1009B0007B689A687B68DB689A420ADA6A4B002295
:1009C0009A60694B0022DA60674B182283F82E2068
:1009D00086E1654B93F92E30182B03D1624B002230
:1009E00083F82E20FB68B3F90430604A82FB0312BF
:1009F0001211DB17D31A7B81FB681A68B7F90A302A
:100A00009A4203DDB7F90A30574A5361FB681A6806
:100A1000B7F90A305B429A4204DAB7F90A305B420E
:100A2000514A5361FB6893F922301846FFF764FF7F
:100A30004F4B1B8818464F4B19684F4B1A68FB6881
:100A40001B680093002301F033FD0346464A5361BF
:100A5000FB6893F82930002B34D0FB685B6A1C4696
:100A6000464BB3F900301A46FB689B6803FB02F360
:100A7000434A82FB03125213DB17D31AA3F1080176
:100A80003E4BB3F900301A46FB689B6803FB02F348
:100A90003B4A82FB03025213DB17D31A03F11E02F7
:100AA000FB681B8A5B083148A0FB0303DB089BB291
:100AB00000930023204601F0FBFC03465B422A4AD8
:100AC000936102E0284B00229A61274B5B69264A1A
:100AD000526902FB03F2244B9B692349896901FB9C
:100AE00003F313445B002749184608F01BFE1E4B16
:100AF0001B691B1401331C4A13611B4B93F83630DE
:100B000083F00103DBB2002B4ED0174B1B69FA6850
:100B1000B2F90420934239DD1B4B93F9003019469A
:100B2000114B5B69FA68B2F9042002FB03F303FB83
:100B300001F20D4B1B6992FBF3F30B4A93600A4BD6
:100B40009B69FA68B2F9042002FB03F2064B1B69A9
:100B500092FBF3F3044AD360FB68B3F904301A46FE
:100B6000014B1A6120E000BF48080020F31ACA6B4D
:100B700010000020D0020020CC020020DE02002065
:100B800089B5F814580800201C0000208F4B93F9F9
:100B900000301A468E4B5B6903FB02F38C4A93606C
:100BA0008B4B9B698A4AD360894BB3F93430002B55
:100BB00040F39680864B01229A60854B002283F891
:100BC0003320FB689B68824A126A02FB03F39B1482
:100BD000002B23D07F4BB3F900309AB27D4BB3F991
:100BE00000301B111BB29BB2D31A9BB21AB2794BC5
:100BF0001A80794B1B68FA6892687549096A01FB8B
:100C000002F29214B3FBF2F39AB2724BB3F90030D2
:100C10009BB213449BB21AB26E4B1A806F4B1B8867
:100C2000C82B14D96A4BB3F934309AB26C4B93F990
:100C300000309BB2194689000B445B009BB2134401
:100C40009BB21AB2624B9A86644B00221A80604BA8
:100C50001B6A40F26C7293420ADD5E4BB3F90030BE
:100C60001B111BB29AB25F4B1A805D4BFF221A70A8
:100C7000574BB3F93430132B21DC594B01221A7036
:100C8000534B00229A60574B1B881AB2514B1A8063
:100C9000FFF7CCF94E4B012283F833204C4B002256
:100CA0009A864A4B01221A7006F01AFB4D4B1B889C
:100CB0001BB21946072001F093FE06F037FB444BA8
:100CC0005B68B3F5967F0BDD414B00229A60FFF71E
:100CD000ADF93F4B00229A863D4B012283F8332029
:100CE0003D4B1A683C4B1B68DB08D31A3A4A136029
:100CF0003D4B1B881846FFF7EBFD03461A46364B63
:100D00001B681344344A1360384B1A68374B1B680E
:100D10001B12D31A354A13602D4B5A68334B1B688C
:100D20001344324A1360314B1B681B12304A136064
:100D3000304B1A682F4B1B681B12D31A2D4A1360B5
:100D4000234B1A682B4B1B6813442A4A1360294B08
:100D50001B681B12284A1360284B1A68274B1B6814
:100D60001B12D31A254A1360194B1A6A234B1B68AE
:100D70001344224A1360214B1B681B12204A136044
:100D8000204B1A681F4B1B681B12D31A1D4A136095
:100D90000F4BDA691B4B1B6813441A4A1360194B3B
:100DA0001B681B12184A1360114B1868124B196804
:100DB000134B1A68144B1B68FFF7C6FD02460C4B19
:100DC0001B68002B22DB012322E000BF1C00002057
:100DD00048080020DE020020E0020020DC020020A3
:100DE00024000020F002002010000020F402002067
:100DF00094070020F802002098070020FC02002041
:100E00008408002000030020E40800204FF0FF3396
:100E100002FB03F3534A92F9002002FB03F3524A08
:100E200092F9002002FB03F3504A93624F4B9B68F8
:100E3000002B6BD0FFF716F9034683F00103DBB2FA
:100E4000002B63D04A4B1B68DB084FF47A7202FB1D
:100E500003F3484AB2F900201146FA68926802FB8F
:100E600001F2934252D2444B40F2FF325A63424B5A
:100E700040F2FF329A63404B40F2FF32DA633F4B5D
:100E800000221A803E4B00221A803E4B1B68002233
:100E90005A623D4B49F640421A80324B93F900307A
:100EA000DBB2314A92F90020D2B202FB03F3DBB28B
:100EB0005AB2364B1A70FFF7C7F82C4B93F92D3006
:100EC000002B04D100210020FFF7DEF81BE0284BA7
:100ED0001B68DB084FF4FA1202FB03F3254AB2F950
:100EE00000201146FA68926802FB01F2B3FBF2F3AC
:100EF000274A92F91C2093401A46254B1A61244B2D
:100F00001B69234A9361FFF7F9FA26E0214B1B88FE
:100F10001846FFF743FB03461A46FB685A62134B19
:100F20009B68002B19D1164B1B88B3F5FA5F04D2CE
:100F3000124B1B88B3F5FA5F0FD3FFF793F8034604
:100F4000002B03D0FFF772F8FFF7D8FAFB680022F6
:100F50005A62064B002283F82D2000BF1437BD468D
:100F600090BD00BF1C0000201D000020480800208C
:100F7000E0020020DE020020002C0140C802002018
:100F8000CA020020CC090020D40800201200002052
:100F9000600900201000002080B582B000AF0C4B2B
:100FA0005B690B4A43F001035361094B5B6903F032
:100FB00001037B607B68002200210B2006F0CDF846
:100FC0000B2006F0E6F800BF0837BD4680BD00BF25
:100FD0000010024080B58CB000AF684B684A1A60C0
:100FE000664B4FF480729A60644B00221A73634B15
:100FF00000221A75614B4FF40022DA615F4B002228
:101000005A605E4B06221A615C4B00229A615B4873
:1010100003F08AFD0346002B04D04FF43371594886
:10102000FEF7DEFF4FF48033FB6207F12C03194615
:10103000524804F00DFD0346002B04D04FF43571E7
:101040005048FEF7CDFF03233B6101237B61012361
:101050003B620023BB614FF48053BB62002387F8DF
:101060002530002387F824300023FB61434803F038
:1010700033FE07F110031946404804F04FFB0346C6
:10108000002B04D04FF439713E48FEF7A9FF02232C
:101090007B600123BB600023FB603B1D1946374882
:1010A00003F0DAFF0346002B04D040F2EE2135486E
:1010B000FEF796FF07237B600223BB600023FB60E3
:1010C0003B1D19462D4803F0C7FF0346002B04D0F3
:1010D00040F2F7212B48FEF783FF00237B600323B8
:1010E000BB600023FB603B1D1946244803F0B4FF9E
:1010F0000346002B04D040F2FF212248FEF770FF88
:1011000003237B600423BB600023FB603B1D194667
:101110001A4803F0A1FF0346002B04D040F2073128
:101120001848FEF75DFF04237B600523BB600023A6
:10113000FB603B1D1946114803F08EFF0346002B50
:1011400004D040F20F310F48FEF74AFF05237B60C1
:101150000623BB600023FB603B1D1946074803F0D4
:101160007BFF0346002B04D040F216310548FEF702
:1011700037FF00BF3037BD4680BD00BFE808002004
:10118000002401404C98000880B588B000AF224B85
:10119000224A1A60204B4FF480729A601E4B002244
:1011A0001A731D4B00221A751B4B4FF46022DA6133
:1011B000194B00225A60184B01221A61164803F09D
:1011C000B3FC0346002B04D040F22D311448FEF747
:1011D00007FF04237B600123BB6001237B610023A5
:1011E000FB604FF4E043FB6100237B7600233B76FA
:1011F00000233B613B1D1946074804F08FFA034664
:10120000002B04D040F23B310548FEF7E9FE00BF59
:101210002037BD4680BD00BFE80700200028014000
:101220004C98000880B596B000AF664B664A1A60CD
:10123000644B00225A60634B20229A60614B40F25B
:10124000EC72DA605F4B00221A615E4B00225A6139
:101250005C4B00229A615B4806F0D2F90346002BF2
:1012600004D040F253315948FEF7BAFE4FF4805390
:10127000BB6407F148031946524806F063FE034673
:10128000002B04D04FF456715048FEF7A9FE4D488C
:1012900006F0B0FA0346002B04D04FF457714B48C8
:1012A000FEF79EFE474806F04DFA0346002B04D099
:1012B0004FF458714548FEF793FE70233B640023BA
:1012C0007B6407F1400319463E4807F065FA034680
:1012D000002B04D040F267313C48FEF781FE6023CA
:1012E0007B620123BB620023FB6200233B6300237C
:1012F0007B634FF48073BB630023FB6307F124031C
:10130000002219462F4806F05FFD0346002B04D04B
:1013100040F273312D48FEF763FE07F124030422E7
:101320001946284806F050FD0346002B04D04FF420
:101330005E712648FEF754FE07F124030822194681
:10134000204806F041FD0346002B04D040F27D31D9
:101350001E48FEF745FE70237B6240F2EB73BB62D2
:1013600007F124030C221946164806F02DFD03460A
:10137000002B04D04FF461711448FEF731FE0023B6
:101380007B600023BB600023FB6020233B610023C4
:101390007B614FF40053BB6100233B623B1D194648
:1013A000084807F057FA0346002B04D04FF4647145
:1013B0000648FEF715FE034803F01EFA00BF583733
:1013C000BD4680BD80090020002C01404C980008DB
:1013D00080B586B000AF224B4FF080421A60204BA0
:1013E00080225A601E4B00229A601D4B4FF47A42B5
:1013F000DA601B4B00221A61194B00229A611848CF
:1014000006F0FEF80346002B04D04FF46A7115482D
:10141000FEF7E6FD4FF48053BB6007F10803194661
:101420000F4806F08FFD0346002B04D040F2AD318B
:101430000C48FEF7D5FD00233B6000237B603B4654
:101440001946074807F0A8F90346002B04D04FF4CB
:101450006D710448FEF7C4FD00BF1837BD4680BD5E
:10146000CC0900204C98000880B586B000AF3B1D29
:1014700000221A605A609A60DA60204B9B691F4A0A
:1014800043F0080393611D4B9B6903F008033B6025
:101490003B6831237B601A4BBB600123FB603B1D23
:1014A0001946184805F03AF9174B5B687B617B6970
:1014B00043F0E0637B617B6943F400437B61124A44
:1014C0007B695360002201210A2005F046FE0A20B4
:1014D00005F05FFE00220121172005F03EFE1720D7
:1014E00005F057FE00220121062005F036FE0620F9
:1014F00005F04FFE00BF1837BD4680BD001002400A
:1015000000003110000C01400000014080B582B0A5
:1015100000AF78607B681E4A934235D11D4B93F82B
:101520003330012B0FD1FEF79DFD034683F00103FD
:10153000DBB2002B07D0184B1B685A00174B1B68F7
:101540001344164A1360134BB3F93430002B05DDF6
:10155000134B1B8801339AB2114B1A80114B1B8815
:10156000B3F5FA5F05D20F4B1B8801339AB20D4BCE
:101570001A800D4B1B88B3F5FA5F05D20A4B1B8806
:1015800001339AB2084B1A8000BF0837BD4680BDB0
:101590008C080020480800209C02002098020020AF
:1015A000DC020020CA020020C802002080B483B000
:1015B00000AF7860334B9A68324B1B689A421ADD51
:1015C000304B9A682F4B5B689A4214DD2E4B0122F8
:1015D00083F82C202B4B9B6840F2DC52934206DDB3
:1015E000284B9B68A3F13202284B1A6403E0274B77
:1015F00040F2E4721A64234B1A68224B5B689A42E9
:101600001ADD204B1A681F4B9B689A4214DD1E4B53
:10161000022283F82C201B4B1B6840F2DC529342C1
:1016200006DD184B1B68A3F13202184B1A6403E065
:10163000164B40F2E4721A64124B5A68114B1B6845
:101640009A421ADD0F4B5A680E4B9B689A4214DD82
:101650000D4B032283F82C200A4B5B6840F2DC52CE
:10166000934206DD074B5B68A3F13202074B1A6415
:1016700003E0064B40F2E4721A6400BF0C37BD462B
:1016800080BC7047D808002048080020002C01408A
:1016900080B483B000AF0346FB71FB79032B28D0E5
:1016A000032B37DC012B02D0022B11D032E01C4B74
:1016B0004FF4C0329A631B4B1A88194B5A611A4B6C
:1016C0004FF400329A63194B1A88174B5A6121E084
:1016D000134B4FF420329A63154B1A88104B5A6102
:1016E000114B4FF400329A63104B1A880E4B5A611B
:1016F00010E00B4B4FF4C0329A630A4B1A88084B28
:101700005A61094B4FF420329A63094B1A88064BF1
:101710005A6100BF00BF0C37BD4680BC704700BF98
:1017200000240140D602002000280140D8020020F9
:10173000DA02002080B584B000AF78607B68DB6897
:101740007A68B2F908209B1A7A68B2F9002002FB85
:1017500003F3FB607B681A697B68DB687968B1F921
:1017600008105B1A7968B1F9021001FB03F31A44FF
:101770007B681A617B681A697B68B3F90430194683
:101780007B6893F91C3001FA03F39A4209DD7B6808
:10179000B3F904301A467B6893F91C309A407B6891
:1017A0001A617B681A697B68B3F9043019467B6853
:1017B00093F91C3001FA03F35B429A420BDA7B681F
:1017C000B3F904301A467B6893F91C3002FA03F32C
:1017D0005A427B681A61FEF745FC034683F0010319
:1017E000DBB2002B02D07B6800221A617B681A6989
:1017F000FB681A447B689B697968B1F914100B4443
:101800009A4208DD7B689B697A68B2F914201A4411
:101810007B689A611AE07B681A69FB681A447B68E6
:101820009B697968B1F914105B1A9A4208DA7B68EF
:101830009B697A68B2F914209A1A7B689A6105E06C
:101840007B681A69FB681A447B689A617B689A69AD
:101850007B68B3F9063019467B6893F91C3001FAAE
:1018600003F39A4209DD7B68B3F906301A467B68B8
:1018700093F91C309A407B689A617B689A697B680F
:10188000B3F9063019467B6893F91C3001FA03F36B
:101890005B429A420BDA7B68B3F906301A467B68E2
:1018A00093F91C3002FA03F35A427B689A61FEF7FF
:1018B000D9FB034683F00103DBB2002B02D07B6827
:1018C00000229A617B689B697A6892F91C20134117
:1018D00018461037BD4680BD80B582B000AF804B42
:1018E0009B6A42F21072934202DD7E4B01221A7013
:1018F0007B4B9B6A7C4A934202DA7A4B01221A7034
:10190000774B9868764BD968784B1A68784B1B6888
:10191000FFF71AF87860774B1B687A68DA62704BC9
:101920005B68754A92F9002002FB03F3734A92F94F
:10193000002002FB03F3642B08DD7B6842F22D22BA
:1019400093420BDC674B00221A7007E07B686FF450
:10195000A452934202DB634B00221A70614B1B7846
:1019600083F00103DBB2002B09D05D4B5B681AB238
:10197000634B1A815A4B9B68614AD3604FE0584BC6
:1019800093F8323083F00103DBB2002B23D0544BA9
:101990009B6A9B119BB2584A92F9002092B202FBBB
:1019A00003F39BB2554A92F9002092B202FB03F373
:1019B0009BB21AB2524B1A814F4B93F900301A4620
:1019C0004E4B93F9003003FB02F39C2202FB03F31E
:1019D0004B4AD36023E0424B9B6A9B119BB2464A21
:1019E00092F9002092B202FB03F39BB2434A92F9B0
:1019F000002092B202FB03F39BB21AB2404B1A8151
:101A00003D4B93F900301A463C4B93F9003003FBF1
:101A100002F36FF05D0202FB03F3394AD3603848EA
:101A2000FFF788FE0346374A13602D4B1B681AB236
:101A3000354B1A812A4BDB68334AD3603248FFF7B3
:101A400079FE03465B42314A1360254B1A68294BE5
:101A50001B681A632D4B1B682C4A126802FB03F2A9
:101A6000284B1B682749096801FB03F313445B00FB
:101A70002749184607F056FE194B5B6A1B140133C1
:101A8000174A5362164B5B6AB3F5FA6F1CDD1D4BA8
:101A90001B684FF4FA6202FB03F2114B5B6A92FB84
:101AA000F3F30F4A1362194B1B684FF4FA6202FBFF
:101AB00003F20B4B5B6A92FBF3F3094AD361084BC9
:101AC0004FF4FA625A6207E00E4B1B68044A136235
:101AD0000E4B1B68024AD36100BF0837BD4680BD6C
:101AE000480800209502002090E8FFFF84080020AD
:101AF000E4080020180900201C0000201D00002020
:101B000060090020C40200201C0A0020C00200203E
:101B10006C08002080B586B000AF234B234A1A60C2
:101B2000214B00225A60204B00229A601E4B41F646
:101B30008562DA601C4B00221A611B4B00229A61FD
:101B4000194805F05DFD0346002B04D04FF4906169
:101B50001748FEF745FA4FF48053BB6007F10803BE
:101B60001946114806F0EEF90346002B04D040F266
:101B700085410F48FEF734FA30233B6000237B6039
:101B80003B461946084806F007FE0346002B04D0E2
:101B900040F28C410648FEF723FA034802F02CFE7F
:101BA00000BF1837BD4680BD8C08002000040040EF
:101BB0004C98000880B584B000AF7860754A7B68A7
:101BC000136005F08DFB00F0B5FC05F0AFFBFFF7EF
:101BD0004BFCFFF7E1F9704B002283F836206E4B87
:101BE00000229A866C4B00229A606B4B0022DA60CE
:101BF000694B012283F83320684B0A225A80674BD5
:101C000064221A80654B0022DA60644B4FF4FA625A
:101C1000DA80624B41F288329A82604B0A221A774C
:101C20005E4B4FF4E1629A805D4B02225A805C4B1E
:101C300064221A805A4B0022DA60594B4FF4FA6240
:101C4000DA80574B41F288329A82554B0A221A7732
:101C5000534B4FF4FA629A80FFF7BCF9514803F0F6
:101C6000E5FB0346002B04D040F2BB414E48FEF793
:101C7000B7F9FFF789FA4D4803F0D8FB0346002B6C
:101C800004D040F2BF414848FEF7AAF9484B9B6890
:101C9000474A43F400439360424B1B685A68414BE8
:101CA0001B6842F080025A60424B9B68414A43F4F1
:101CB000004393603D4B1B685A683C4B1B6842F0E5
:101CC00080025A60334B1B6816330622194635488A
:101CD00003F048FC354803F02BF8FFF7A3FAFFF7B1
:101CE00077FBFFF717FF344805F0DAFC0346002BBB
:101CF00004D040F2D2412C48FEF772F900212E4860
:101D000005F0D0FD00212C4806F0A8FC04212A484B
:101D100005F0C8FD0421284806F0A0FC082126484B
:101D200005F0C0FD0821244806F098FC0C2122484B
:101D300005F05AFE214B40F2E4721A64204805F087
:101D4000AFFC0346002B04D040F2E2411648FEF7F8
:101D500047F91C4805F0A4FC0346002B04D040F2D0
:101D6000E7411148FEF73CF9FEF760F9134B40F2EA
:101D7000FF325A63114B40F2FF329A630F4B40F22D
:101D8000FF32DA634FF47A7003F010FF0023FB6038
:101D90003BE000BF18090020480800201C0A002072
:101DA00060090020E80800204C980008E80700209F
:101DB000002401400028014080090020002C01403F
:101DC000CC0900208C080020052003F0EFFE4C4BCE
:101DD0001B689A8B4B4B1B8813449AB2494B1A8051
:101DE000474B1B68DA8B484B1B8813449AB2464B0F
:101DF0001A80434B1B681A8C444B1B8813449AB2BD
:101E0000424B1A80FB680133FB60FB680F2BDBD968
:101E10003C4B1B881B099AB23A4B1A803A4B1B88E1
:101E20001B099AB2384B1A80384B1B881B099AB28F
:101E3000364B1A80364B4FF4C0329A63314B1A88B6
:101E4000334B5A613349002000F080FD07F10A034B
:101E50001946012000F07AFDB7F90A301B042E4A1A
:101E6000136007F10A031946022000F06FFDB7F96D
:101E70000A301B04294A136007F10A03194603209C
:101E800000F064FDB7F90A301B04254A136007F11E
:101E90000A031946042000F059FDB7F90A301B0463
:101EA000204A136007F10A031946052000F04EFD91
:101EB000B7F90A301B041C4A136007F10A031946DC
:101EC000062000F043FDB7F90A301B04174A1360DF
:101ED0001749072000F03AFD154BB3F90030002BED
:101EE00002D1134B6F221A80052003F05FFEFEF72C
:101EF0009DF8FEF703FB00BF1037BD4680BD00BF55
:101F000018090020D6020020D8020020DA020020A2
:101F10000024014014000020B8020020B402002078
:101F2000A4020020A8020020AC020020B002002081
:101F3000DE02002080B489B000AF786039607B6831
:101F40004DF6D05202FB03F31B11FB613B68464A7E
:101F500002FB03F3BB61BB697B61FA69BB69134494
:101F60005B103B61BA69FB69D31A5B10FB603B698C
:101F7000002B05DBFB68002B02DA7B69002B08DCF9
:101F80003B69002B1DDAFB68002B1ADB7B69002BF9
:101F900017DC7B6903F2EC72FB68D31A1B1303F2A4
:101FA000F633324A1360314B1A68FB68DB12134474
:101FB0002E4A53602D4B5A687B69DB12D31A2B4A89
:101FC00093603B69002B02DBFB68002B05DA3B6961
:101FD000002B1ADAFB68002B17DA3B6903F2EC726C
:101FE000FB68D31A1B1303F2F633204A13601F4B0E
:101FF0001A68FB68DB1213441C4A53601B4B1A68B7
:102000003B69DB12D31A194A93603B69002B05DA4E
:10201000FB68002B02DB7B69002B08DC3B69002B93
:102020001DDBFB68002B1ADA7B69002B17DC3B6990
:1020300003F2EC727B69D31A1B1303F2F6330B4ADB
:1020400013600A4B1A683B69DB12D31A074A936084
:10205000064B9A687B69DB121344044A536000BF45
:102060002437BD4680BC704714F8FFFFD808002015
:10207000B0B58EB002AFBA607B600346FB810B4601
:10208000BB810023FB620023BB6200237B62002331
:102090003B620023FB610023BB6100237B610023C3
:1020A0003B61B7F90E00B7F90C1007F1280307F1EF
:1020B0002C02FDF73DFE07F1100207F1140319464B
:1020C000B86807F009FA7B69B3F1004F01D1314BD1
:1020D0007B61F86AB96A7B693A6907F1180507F10B
:1020E0001C04019200932B462246FDF76FFE2A4BFB
:1020F0001A68294B1B681B11D31A274A1360264BF9
:102100001A68BB691344244A1360234B1B681A11D5
:102110007B685A60214B1A68204B1B681B11D31A2D
:102120001E4A13601D4B1A68FB6913441B4A136057
:102130001A4B1B681A117B681A607B68B3F934303C
:10214000002B09D07B68B3F934301A467B681A62D9
:102150007B680022DA6101E0FFF7BEFB7B68D8698B
:102160007B68196A7B695B423A6907F1200507F1D0
:102170002404019200932B462246FDF7ACFE7B6AB5
:102180003A6A11461846FFF7D5FE00BF3037BD4604
:10219000B0BD00BF01000080E4020020E802002082
:1021A00080B584B000AF78607E4B93F82C30032B61
:1021B0006DD801A252F823F08F220008C92100082F
:1021C000FF210008472200080121774803F078FA30
:1021D00003461A46754B1A60744B1B681AB2744B4F
:1021E0001A800121734803F06BFA03461A46724BBA
:1021F0001A60714B1B681AB2704B1A8047E00121BC
:102200006C4803F05DFA03461A466B4B1A606A4B42
:102210001B681AB2694B1A800121634803F050FA17
:1022200003461A46614B1A60644BB3F900309BB207
:102230005B429AB25D4B1B689BB2D31A9BB21AB237
:102240005B4B1A8023E00121574803F039FA03461B
:102250001A46564B1A60554B1B681AB2544B1A80DB
:102260000121544803F02CFA03461A46524B1A60D7
:102270004F4BB3F900309BB25B429AB24E4B1B6896
:102280009BB2D31A9BB21AB24C4B1A8000BF72B6E3
:1022900000BF444B93F8363083F00103DBB2002BD0
:1022A00000F0B680464B1B685B6AFB81454B1B8880
:1022B00044F24F62934205D8FB89C72B02D8424BA8
:1022C00000221A703F4B1B8846F67812934202D9BF
:1022D0003D4B01221A703C4B1A783C4B1B685A63E9
:1022E000304B93F83330012B06D1394B1A68394BF8
:1022F0001B681344364A1360FA89324B1B8819460F
:10230000304B1B889B089BB20B449A423DDA324B00
:102310001B7883F00103DBB2002B36D02A4B1B78ED
:1023200083F00103DBB2002B2FD01E4B93F8333028
:10233000012B10D1294B1B68002BB8BF5B42284AE8
:10234000934208DA224B1B68264A1360154B03227E
:1023500083F82D205CE0244B93F900301946FB896B
:1023600042F6AB2202FB03F3164A128893FBF2F308
:1023700003FB01F31A041D4B1B681344194A136035
:10238000084B022283F82D2042E0134B01221A70E1
:10239000044BB3F93430002B2AD0144B1B68114A7C
:1023A000136031E048080020E8080020C809002038
:1023B0008E020020E80700208808002090020020FC
:1023C000CC090020D4080020960200201809002023
:1023D000980200209C020020BC020020A0020020E5
:1023E000555555159C07002012000020800800203C
:1023F000254B93F900301A46244B03FB02F2244B81
:102400001B681344234A1360234B012283F82D20B9
:1024100062B600BF1F4B1B681846FFF7C7F81E4B7C
:1024200093F82C201D4B1B789A420AD01A4B93F834
:102430002C301846FFF72CF9174B93F82C20174B2C
:102440001A70FDF70FFE0346002B0AD0144BB3F9A8
:102450000000144BB3F900100E4B1A680E4BFFF737
:1024600007FE114B1B689AB2104B5A630E4B5B6808
:102470009AB20E4B9A630C4B9B689AB20B4BDA6381
:1024800000BF1037BD4680BD1C00002055555515B6
:10249000800800209C07002048080020160000202B
:1024A0008E02002090020020D8080020002C01405D
:1024B00080B485B000AFF860B9607A603B60FA68BC
:1024C000BB689A4201DA3B682EE0FA687B689A4260
:1024D00001DDBB6928E07A68BB68D21AB9693B683C
:1024E000CB1A9A4211DDFA68BB68D31AB9693A6807
:1024F0008A1A013202FB03F27968BB68CB1A0133F6
:1025000092FBF3F23B6813440EE0FA68BB68D31AFF
:10251000B9693A688A1A02FB03F27968BB68CB1A78
:1025200092FBF3F23B68134418461437BD4680BC57
:102530007047000080B58AB000AF06237B84062375
:102540003B840023FB840023FB830023BB834FF6E3
:10255000FF73BB8400237B61A14B1B887B84A14B51
:102560001B883B8400237B609F4BFB6001233B6106
:102570007B8C4FF6FF7293420BD0B3F5803F80F215
:102580009D81002B00F0F9804EF6EE62934250D010
:1025900094E13B8C002B16D1914800F0B1F9034631
:1025A000002B40F0958107F114023B1D114618469F
:1025B00004F07EFF0346FB76FB7E002B00F0888153
:1025C000FB7E9BB28CE13B8C4EF6EE62934225D1B2
:1025D000834800F095F90346002B0ED107F1140251
:1025E0003B1D1146184604F063FF0346FB76FB7E55
:1025F000002B02D0FB7E9BB272E14FF000024FF045
:1026000000037849012004F0FBFD0346FB76FB7EC6
:10261000002B00F05D81FB7E9BB261E100F004FACB
:102620000346FB76FB7E002B00F05281FB7E9BB2C3
:1026300056E13B8C002B64D10023FB8431E06B4BD3
:102640001B889AB2FB8C6A4931F813309A4201D147
:10265000FB8CBB84FA8CB7F924309A421ED0FB8CD9
:10266000634A32F813306349184600F06FF90346A5
:10267000BB83BB8B012B11D0FB8C5D4A32F813302E
:102680005C4AB2F900201146184600F065FA03468C
:10269000FB83FB8B002B01D0FB8B21E1FB8C0133F7
:1026A000FB84FB8C072BCAD94FF000024FF00003CC
:1026B0004B49012004F0A4FD0346FB76FB7E002B72
:1026C00002D0FB7E9BB20BE100237B604A4BFB6098
:1026D00001233B61434800F013F90346002B40F00F
:1026E000F98007F114023B1D1146184604F0E0FE84
:1026F0000346FB76FB7E002B00F0EC80FB7E9BB25A
:10270000EEE03B8C4FF6FF7293422BD100237B60AF
:10271000394BFB6001233B61324800F0F1F803467E
:10272000002B0ED107F114023B1D1146184604F090
:10273000BFFE0346FB76FB7E002B02D0FB7E9BB2E6
:10274000CEE04FF000024FF000032549012004F0D5
:1027500057FD0346FB76FB7E002B00F0BB80FB7E23
:102760009BB2BDE000F060F90346FB76FB7E002BD8
:1027700000F0B080FB7E9BB2B2E03B8C002B0AD114
:1027800000F052F90346FB76FB7E002B00F0A4809C
:10279000FB7E9BB2A4E03B8C4FF6FF7293421CD1B0
:1027A00000237B60144BFB6001233B610D4800F06C
:1027B000A7F80346002B40F08F8007F114023B1D61
:1027C0001146184604F074FE0346FB76FB7E002B90
:1027D00000F08280FB7E9BB282E00023FB843FE01E
:1027E000003C01080040010800F80008063C010810
:1027F000000000200403002000FC00083A4B1B8866
:102800009AB2FB8C394931F813309A4201D1FB8CD2
:10281000BB84FA8CB7F924309A421ED0FB8C334A21
:1028200032F813303249184600F090F80346BB8363
:10283000BB8B012B11D0FB8C2C4A32F813302C4A65
:10284000B2F900201146184600F086F90346FB83D2
:10285000FB8B002B01D0FB8B42E0FB8C0133FB8414
:10286000FB8C072BCAD94FF000024FF0000321491F
:10287000012004F0C5FC0346FB76FB7E002B02D052
:10288000FB7E9BB22CE000237B601B4BFB60012393
:102890003B611A4800F034F80346002B1CD107F1C5
:1028A00014023B1D1146184604F002FE0346FB7657
:1028B000FB7E002B10D0FB7E9BB211E000F0B4F841
:1028C0000346FB76FB7E002B08D0FB7E9BB207E025
:1028D00000BF04E000BF02E000BF00E000BF002333
:1028E00018462837BD4680BD06400108000000207C
:1028F000040300200040010800F80008003C010823
:1029000080B485B000AF78600123FB6045F2555379
:102910007B810DE07B681B887B817B894FF6FF7292
:10292000934202D00023FB6006E07B6804337B60A7
:102930007B68054A9342EDD3FB689BB21846143777
:10294000BD4680BC704700BF0040010880B586B01E
:1029500000AF03463960FB800023FB8145F25553ED
:10296000BB810123FB821C4B3B611B4BBB600020E6
:1029700000F0AEF80346FB81FB89AB2B01D1AB2302
:1029800026E0FB8903F500334F339B02BB60FB89D4
:1029900001339A02114B13443B6113E03B691B88DE
:1029A000BB81BA89FB889A4209D13B69023B1B88EB
:1029B0009BB21AB23B681A800023FB8207E03B6996
:1029C000043B3B61BB6802333A699A42E6D8FB8A12
:1029D00018461837BD4680BD003C0108FE3B010883
:1029E00080B584B000AF03460A46FB801346BB8027
:1029F0000023FB81B7F90420FB881146184600F03C
:102A0000ABF80346FB81FB89802B08D1B7F9042082
:102A1000FB881146184600F0FBF80346FB81FB8952
:102A200018461037BD4680BD80B586B000AF002384
:102A3000FB7500233B6100233B60214BBB600123FE
:102A4000FB602048FFF75CFF0346002B0DD107F128
:102A500010023B461146184604F02AFD0346FB755A
:102A6000FB7D002B01D0FB7D25E04FF000024FF0F5
:102A700000031449012004F0C3FB0346FB75FB7DF2
:102A8000002B01D0FB7D16E00F4BBB600F48FFF71A
:102A900037FF0346002B0DD107F110023B461146CC
:102AA000184604F005FD0346FB75FB7D002B01D0A5
:102AB000FB7D00E0002318461837BD4680BD00BFEF
:102AC00000F80008003C010800FC00080040010874
:102AD00080B485B000AF0346FB710623FB8106235B
:102AE000BB811B4B1B88FB811A4B1B88BB81FB796D
:102AF000002B1BD0012B25D1BB89002B08D1FB89D2
:102B00004EF6EE62934201D100231CE001231AE04D
:102B1000FB89002B08D1BB894EF6EE62934201D1AE
:102B2000012310E000230EE0AB230CE0FB89002B17
:102B300001D1002307E0BB89002B01D1012302E072
:102B4000AB2300E0002318461437BD4680BC704715
:102B5000003C01080040010880B586B000AF034684
:102B60000A46FB801346BB800023FB7400233B8294
:102B7000244B7B61244BFB600120FFF7A9FF034638
:102B80003B823B8AAB2B01D1AB2336E03B8A03F57A
:102B900000334F339B027B613B8A01339A021B4B0C
:102BA0001344FB6024E07B691B68B3F1FF3F1CD139
:102BB000B7F904204FEAE2737969012004F020FBA1
:102BC0000346FB74FB7C002B02D0FB7C9BB214E021
:102BD0007B69991CFA884FF00003012004F010FB78
:102BE0000346FB74FB7C9BB207E07B6904337B618B
:102BF0007A69FB689A42D6D3802318461837BD46B7
:102C000080BD00BF003C010800400108FF3B0108F7
:102C100080B58CB000AF03460A46FB801346BB80EC
:102C2000002387F82530544BFB620023BB6200234E
:102C30007B840023FB8400233B840023FB8300234D
:102C4000BB610020FFF744FF03467B847B8C012B94
:102C500004D1494BFB62494BBB6209E07B8C002BE2
:102C600004D1474BFB62474BBB6201E0AB237EE0E4
:102C70004EF6EE624FF00003F96A012004F0C0FA4C
:102C8000034687F8253097F82530002B03D097F8B6
:102C900025309BB26BE0B7F90420FB88114618463B
:102CA000FFF75AFF03463B843B8C002B01D03B8C43
:102CB0005DE00023FB8428E0FB8C334A32F81330BC
:102CC000FA889A421ED0FB8C2F4A32F813302F49D3
:102CD0001846FFF73BFE0346FB83FB8B012B11D00D
:102CE000FB8C294A32F81330284AB2F900201146E9
:102CF0001846FFF731FF03463B843B8C002B01D085
:102D00003B8C34E0FB8C0133FB84FB8C072BD3D949
:102D10000023BB60BB6A3B6101237B6107F11802A2
:102D200007F108031146184604F0C2FB034687F872
:102D3000253097F82530002B03D097F825309BB22B
:102D400015E04FF000024FF00003F96A012004F093
:102D500057FA034687F8253097F82530002B03D023
:102D600097F825309BB202E097F825309BB21846C1
:102D70003037BD4680BD00BF003C010800FC0008A4
:102D80000040010800F800080000002004030020B3
:102D900080B483B000AF00237B600FE00B4A7B68F8
:102DA00013441A787B68DBB21344D9B2074A7B68B4
:102DB00013440A461A707B6801337B607B680F2BD3
:102DC000ECDD00BF0C37BD4680BC704728000020FA
:102DD00080B48BB000AF786039607B681B68FB61A2
:102DE0007B6804331B68BB61234B1B68BB60234BB0
:102DF0001B68FB60224B1B683B61224B1B687B619D
:102E0000214B7B6200233B6226E0BA69FB69190112
:102E10003B691944F8697B6A03445940FB695809C6
:102E20007B6903444B40D31ABB61FA69BB69190142
:102E3000BB681944B8697B6A03445940BB695809A7
:102E4000FB6803444B40D31AFB617A6A0F4B13446F
:102E50007B623B6A01333B623B6A1F2BD5DDFA691B
:102E60003B681A603B680433BA691A6000BF2C37AC
:102E7000BD4680BC704700BF280000202C00002009
:102E800030000020340000202037EFC64786C8619C
:102E900080B485B000AF786039600023FB6010E03B
:102EA000FB687A6813441978FB683A6813441A7807
:102EB000FB68786803444A40D2B21A70FB68013359
:102EC000FB60FB68072BEBDD00BF00BF1437BD467E
:102ED00080BC704780B58AB000AFF860B9607A6096
:102EE00000237B6236E07B6ABA681A4407F1140358
:102EF0001068516803C307F11C0207F1140311465F
:102F00001846FFF765FF07F11C0316491846FFF73F
:102F1000BFFF7B6AFA6813441A4607F11C0303CB10
:102F2000106051600F4B1A4607F1140393E8030039
:102F300082E803000C4B1B6808330B4A13600A4BF2
:102F40001B68C3F30903002B01D1FFF721FF7B6A44
:102F500008337B627A6A7B689A42C4DB00BF2837F9
:102F6000BD4680BD080300201003002080B5A8B036
:102F700000AFF860B96011461A460B46FB80134655
:102F80007B717A7907F11403F9681846FFF7A2FFFD
:102F900004F0A6F907F11403C7F8983007F11003FD
:102FA000C7F894300023C7F89C3023E0D7F89C3052
:102FB000D7F8982013441B681A46D7F894301A6043
:102FC000D7F89C20BB681A44F988104B1B680B4447
:102FD0009A420AD2D7F89C20BB68D1183B691A469E
:102FE0004FF00003022004F00BF9D7F89C300433B3
:102FF000C7F89C307B79D7F89C209A42D6DB04F046
:1030000095F900231846A037BD4680BD3800002042
:1030100080B400AFBFF34F8F00BF064BDB6803F4F3
:10302000E0620449044B1343CB60BFF34F8F00BFF2
:1030300000BFFDE700ED00E00400FA0590B585B0A3
:1030400000AF4FF480411C4803F0ECFC0346012B19
:103050000CBF01230023FB7302F09EFDB86002F059
:103060009BFD78607A68BB68D21A144B1B689A4241
:103070001DD9FC7B4FF480410F4803F0D3FC03467D
:10308000012B0CBF01230023DBB29C420FD0FB7B42
:10309000002B14BF01230023DBB283F00103DBB25A
:1030A000FB73FB7B03F00103FB737B68BB60FB7B63
:1030B00018461437BD4690BD00100140BC9800086A
:1030C00090B583B000AF0023FB7102F065FD38605E
:1030D0003B4B1B781C46FFF7B1FF03469C4226D0B2
:1030E000374B1B78002B14BF01230023DBB283F086
:1030F0000103DBB203F00103DAB2314B1A70304B3B
:103100001B78002B03D02F4A3B6813600FE02E4A38
:103110003B6813602D4B1B78002B05D00323FB71FC
:103120002A4B00221A7002E0284B01221A70244B0D
:103130001B7883F00103DBB2002B11D0234B1B78EB
:10314000002B0DD0204B1B683A68D21A204B1B680D
:103150009A4205D91D4B00221A700123FB712AE007
:10316000174B1B78002B15D0164B1B683A68D21AE8
:10317000184B1B689A420DD3124B1B683A68D21A3F
:10318000154B1B689A4205D8104B00221A70022377
:10319000FB7110E00A4B1B78002B0CD0094B1B680D
:1031A0003A68D21A0C4B1B689A4204D9074B00228A
:1031B0001A700423FB71FB7918460C37BD4690BD8D
:1031C00015030020180300201C030020200300200A
:1031D000C0980008C4980008C898000880B582B05C
:1031E00000AF78607B689B69FA2B09D97B6893F9FB
:1031F00009301B115BB2002B02D0DD2000F080F8FB
:10320000364B1B680133354A1360344B1B6803F09F
:103210000103002B58D1FFF753FF0346042B58D866
:1032200001A252F823F000BFCD3200083D32000861
:10323000793200089F3200085D3200087B689B7A73
:10324000002B14BF01230023DBB283F00103DBB2A8
:1032500003F00103DAB27B689A723AE07B6893F973
:10326000093023F010035AB27B685A727B6800223F
:103270009A61FDF7A7F92CE07B6893F9093043F0D8
:1032800010035AB27B685A727B689B69002B1FD16E
:103290007B6801229A617B680122DA7218E07B6800
:1032A00093F90930DBB20233DBB25AB27B685A724F
:1032B0007B6893F90930042B02DD7B6800225A7287
:1032C000786800F04BF804E000BF02E000BF00E0C7
:1032D00000BF00BF0837BD4680BD00BF24030020EB
:1032E00080B500AFFFF7AAFE03461A46034B1A70DB
:1032F000662000F005F800BF80BD00BF1403002069
:1033000080B582B000AF0346FB71FB79662B06D116
:1033100001224FF40041104803F09BFB17E0FB79BA
:10332000DD2B0FD100BF4FF480410B4803F07AFB37
:103330000346002BF7D100224FF40041064803F06A
:1033400088FBFEE7FB79BA2B01D1FFF761FE00BFD6
:103350000837BD4680BD00BF0010014080B483B077
:1033600000AF78607B6893F90930DBB203F00703A4
:10337000042B15D0042B1BDC002B09D0022B17D1FA
:103380007B6844F620629A807B6806221A770FE0F9
:103390007B6847F230529A807B6814221A7707E0E4
:1033A0007B6849F640429A807B6832221A7700BFD8
:1033B00000BF0C37BD4680BC7047000080B400AF32
:1033C000BFF34F8F00BF064BDB6803F4E062044994
:1033D000044B1343CB60BFF34F8F00BF00BFFDE72B
:1033E00000ED00E00400FA0584B080B588B000AFBD
:1033F00007F1280C8CE80F008422574907F12800B8
:1034000005F0BEFB0346002B01D0FCF73AFB534B03
:1034100055221A70514BAA225A70514B002242F089
:10342000220283F83420002242F0020283F8352081
:103430004B4B002262F0760283F8CE20002242F04D
:10344000020283F8CF20464B4FF0FF3283F868200A
:103450004FF0FF3283F86920424A434B03CB1060A0
:1034600051601B8813813E4B002283F864210022A7
:1034700042F0080283F865213C4B1B68BB613C4B62
:103480001B6803F5DA737B61BB691A787B691B786B
:103490009A4259D003F024FF0023BB60354B002231
:1034A0001A60334B1B68334A9360324B0122DA6057
:1034B00007F1080319462F4803F0FAFF0346002BD3
:1034C00000D0FEE7294B1B683B612B4BFB60FB6880
:1034D00003F5DA730C2239691846FBF77FFE214B9E
:1034E0003B61FB6820330E2239691846FBF776FEF4
:1034F000214B3B613B1DFB600023FB611EE0FB6930
:103500003A6913441B681A46FB681A60184B1A681C
:10351000FB691A44164B1B6803F500739A420AD2E2
:10352000134B1A68FB69D1187B681A464FF00003E9
:10353000022003F065FEFB690433FB61FB69B3F510
:10354000007FDCDB03F0F2FE00BF2037BD46BDE8A4
:10355000804004B0704700BF28030020F004002022
:10356000400A0020600A0020609800084C000020FB
:10357000480000205C0500205000002084B0F0B519
:1035800093B010AF786007F1240080E80E00794B0B
:103590001B68B3F5486F2CD9774BB3F864319BB2F5
:1035A00040F60202934224D0724B00221A6002219C
:1035B000724803F066FA724B00221A70714B1B6856
:1035C000704A23F0010313606E4B84225A606D4BE6
:1035D0001B686C4A43F00103136007F12403842243
:1035E0006949184605F0CCFA0346002B01D0FCF7D8
:1035F00048FA644B5B68DAB26FF07B039B1ADAB26D
:10360000624B1A70614B1A78614B1B789A4280F0BA
:103610009D805E4B1B78013BDAB25D4B1A70584BB4
:1036200000221A7092E0564B1B78022B37D0022BE7
:103630007CDC002B02D0012B1CD077E0544B1B7894
:103640001A46514B9B5CAA2B6BD1514B1B78013B0B
:103650004D4AD35C552B64D14D4B1B78013BDAB2FC
:103660004C4B1A704B4B1B786B2B5AD8444B012296
:103670001A7056E0464B1B781A46464B1B780233AD
:103680009A4250D1424B1B781A463F4B9B5C063303
:10369000DAB2414B1A703A4B02221A7043E03C4BAB
:1036A0001B781A463B4B1B7819463B4B1B780B4447
:1036B000013B9A4239D1374B1B781A46324B13449F
:1036C000354A127819463548FBF788FD324B1E788B
:1036D0006D4607F128040FCC0FC50FCC0FC50FCCDA
:1036E0000FC594E8070085E807007B6A32462B493E
:1036F000786800F057F8224B00221A70214B1B68A3
:10370000204A23F0010313601E4B84225A601D4B94
:103710001B681C4A43F001031360164B00221A6019
:1037200003E000BF02E000BF00E000BF184B1B78C1
:10373000013319461A4BA3FB01235A0913465B01B7
:1037400013449B00CA1AD2B2114B1A70104B1A784C
:103750000E4B1B789A427FF466AF064B1B68013311
:10376000044A136000BF0C37BD46BDE8F04004B00A
:10377000704700BF54050020400A0020001401409B
:103780005205002058000240280300205005002068
:103790003C0000203D00002051050020AC0300202B
:1037A000E1830F3E82B080B588B002AFF860B960A7
:1037B0007B621346FB71FB791946B86800F040FB49
:1037C0000346002B40F0D482BB6804331B78652B82
:1037D00000F08B80652B00F3CD82642B22D0642B0C
:1037E00000F3C8820A2B19DC032BC0F2C382033B0F
:1037F000072B00F2BF8201A252F823F0D53A00084D
:10380000753D0008753D0008753D0008CB3B00087C
:10381000393C00081F3D0008553B0008612B00F0B3
:10382000C880A7E2A54B00225A71A44B08229A70C7
:10383000A24B2122DA70BB681A79A04B1A71FB687F
:103840001B69DAB29D4B9A72FB6893F90930DAB2C0
:103850009A4B9A71FB6818686023009300234AF220
:10386000104247F23051FEF723FE0346DAB2934B83
:10387000DA71FB689B7A002B03D0904B40221A72BE
:1038800002E08E4B00221A72FB68DB7A1A468B4BE1
:103890005A72FB6893F91D30DAB2884BDA72874BA3
:1038A0009B780633DBB21946844800F08FFA07F1A3
:1038B0002403184605F0FFFA804B9B789BB2063331
:1038C0009AB207F124037D49184605F0EDF8FB682C
:1038D000DB7A002B00F05082784B5B7A002B00F0F3
:1038E0004B82FB680022DA7246E2BB6808331B7821
:1038F000182B03D8FB680F225A7707E0FB6893F96F
:103900001D300F2B02D1FB6800225A77BB680833A9
:103910001B781846FB68B3F9063000930023BE22DB
:103920003221FEF7C5FD0346002B2EDDFB681B6927
:10393000022B23D9BB6808331B781846FB68B3F900
:10394000063000930023BE223221FEF7B1FD02466D
:10395000FB68DA60FB681868FB68DB68002200928D
:103960004AF210424AF22801FEF7A2FD03465A42EB
:10397000FB68DA60FB6801221A7520E2FB6800220E
:10398000DA60FB6800221A7519E2BB6807331B78FE
:103990001846FB68B3F9043000930023AF222D21B1
:1039A000FEF786FD0246FB68DA60FB6800221A75A6
:1039B00005E2BB6809331B78184642F21073009386
:1039C0000023BE223221FEF773FD0346002B18DDD3
:1039D000FB681B69022B10D9BB6809331B7818469A
:1039E00042F2107300930023BE223221FEF760FDE5
:1039F00003465A42FB68DA6013E0FB680022DA6093
:103A00000FE0BB6808331B781846FB68B3F9043035
:103A100000930023AF222D21FEF74AFD0246FB68EA
:103A2000DA60BB6806331B780233DAB2234B9A7034
:103A3000BB6803331B780333DAB2204BDA701F4BB9
:103A400001221A71BB685A791C4B5A711C4B1D4AD2
:103A50001A601D4B194A1A60BB685A791B4B1A70C1
:103A60001B4B06221A70184B1B68194A12789818BB
:103A7000134B1B68154A127852009918BB6806331D
:103A80001B781A46FBF7AAFB0C4B9B780633DBB27C
:103A900019460A4800F09AF907F12403184605F080
:103AA0000AFA064B9B789BB206339AB207F12403BD
:103AB0000249184604F0F8FF81E100BFF00400203D
:103AC000E00B0020400A0020E80B00205B050020EE
:103AD0005A050020A94ABB681360A94BA94A1A607D
:103AE000BB685A79A84B1A70A54B1B68A64A127876
:103AF0001344A24A1268063212781A70BB68063361
:103B00001B78012B40F05A819E4B002242F00202AA
:103B100083F86421002242F0080283F8652103F053
:103B2000DFFB00237B61994B00221A60984B1B68D6
:103B3000964A9360954B1D22DA6007F114031946EB
:103B4000924803F0B5FC0346002B00D0FEE703F0DB
:103B5000EDFB33E103F0C4FB00233B618D4B0022FE
:103B60001A608D4B1B688B4A93608A4B0122DA6086
:103B700007F110031946874803F09AFC0346002B0F
:103B800000D0FEE7844B196845F25A024FF000035B
:103B9000022003F035FB804B1B68191D4FF001021A
:103BA0004FF00003022003F02BFB7B4B1B6803F15B
:103BB00008017A4B1B889AB24FF00003022003F0F1
:103BC0001FFB03F0B3FBFFF7F9FBBB6807331B7860
:103BD0001B021AB2BB6806331B781BB213431BB21D
:103BE0009AB26E4B1A806E4B02229A70BB680333F6
:103BF0001B780333DAB26A4BDA70694B07221A7109
:103C0000674B00225A71664B9B780633DBB219462C
:103C1000634800F0DBF807F12403184605F04BF980
:103C20005F4B9B789BB206339AB207F124035C4941
:103C3000184604F039FFC2E0BB6802331B78023B30
:103C4000DAB2584B1A704D4ABB6813604C4B564A57
:103C50001A60BB6805331A78544B1B789A4231D0EE
:103C6000474B1868454B1B6806334E4A1278194675
:103C7000FBF7B4FA464B1968484B1A88494B1B7836
:103C80004948FFF773F9474B1B781A46404B1B68AE
:103C900013443F4A13603E4B1A68424B1B78194647
:103CA000424B1B7800930B464149424800F00CFA06
:103CB0004048FBF709FB03469BB21A463D493E4884
:103CC00004F0F2FEBB685A79384B1A70344B02226A
:103CD0009A70BB6803331B780333DAB2304BDA7067
:103CE0002F4B08221A712E4B00225A712C4B9B78B5
:103CF0000633DBB219462A4800F068F807F12403BE
:103D0000184605F0D8F8264B9B789BB206339AB23A
:103D100007F124032249184604F0C6FE4FE0204B69
:103D200002229A70BB6803331B780333DAB21C4B50
:103D3000DA701B4B09221A71194B00225A71184B69
:103D40009B780633DBB21946154800F03FF807F1BF
:103D50002403184605F0AFF8114B9B789BB206334D
:103D60009AB207F124030E49184604F09DFE26E09E
:103D700000BF24E000BF22E000BF20E0E00B0020F5
:103D8000E80B0020400A00205A0500206C050020A6
:103D9000400000207C050020440000205805002041
:103DA000F00400208C050020300400205002002088
:103DB0006C980008B0040020D405002000BF00BFAC
:103DC0001837BD46BDE8804002B0704780B485B06A
:103DD00000AF78600B46FB700023FB600223BB60E2
:103DE0000AE0BB687A6813441B781A46FB681344E0
:103DF000FB60BB680133BB60FB78023BBA689A4248
:103E0000EFDBFB6883F47F4383F0FF03FB60FB7809
:103E1000023B7A681344FA68D2B21A70FB68190A36
:103E2000FB78013B7A681344CAB21A70FB787A684F
:103E3000134400221A7000BF1437BD4680BC70477F
:103E400080B485B000AF78600B46FB700023FB6048
:103E50000223BB600AE0BB687A6813441B781A46E9
:103E6000FB681344FB60BB680133BB60FB78023B1B
:103E7000BA689A42EFDBFB6883F47F4383F0FF0369
:103E8000FB60FB689AB2FB78023B79680B441B78B5
:103E900099B2FB78013B786803441B789BB21B0204
:103EA0009BB20B449BB2D31A9BB21BB21846143779
:103EB000BD4680BC704780B400AFFEE780B400AF61
:103EC000FEE780B400AFFEE780B400AFFEE780B449
:103ED00000AFFEE780B400AF00BFBD4680BC7047B6
:103EE00080B400AF00BFBD4680BC704780B400AF57
:103EF00000BFBD4680BC704780B500AFFBF7FAFB42
:103F000001F038FE00BF80BD80B500AF024802F06E
:103F100019FF00BF80BD00BF1C09002080B500AFA5
:103F2000024802F00FFF00BF80BD00BF68060020FE
:103F300080B500AF024802F005FF00BF80BD00BFA2
:103F40009005002080B500AF024802F0FBFE00BFE4
:103F500080BD00BFAC06002080B500AF024802F073
:103F6000F1FE00BF80BD00BFF006002080B500AFAD
:103F7000034800F093FF034800F090FF00BF80BDAE
:103F8000E8080020E807002080B500AF024803F0F1
:103F900013FE00BF80BD00BF8009002080B500AFC8
:103FA000024803F009FE00BF80BD00BF8009002069
:103FB00080B500AF024803F0FFFD00BF80BD00BF29
:103FC0008009002080B500AF024803F0F5FD00BF76
:103FD00080BD00BFCC09002080B500AF024803F0CF
:103FE000EBFD00BF80BD00BF8C08002080B500AF96
:103FF000024803F0E1FD00BF80BD00BFA007002024
:1040000080B500AF024804F03BFE00BF80BD00BF9A
:104010003407002080B500AF024804F031FE00BF35
:1040200080BD00BFD405002080B500AF202002F085
:1040300041FD00BF80BD80B500AF012002F03AFD18
:1040400000BF80BD80B500AF102002F033FD00BF7F
:1040500080BD000080B483B000AF0346FB71FB79E4
:104060000A2B09D100BF0C4B1B6803F08003002B07
:10407000F9D0094B0D225A6000BF074B1B6803F0B3
:104080008003002BF9D0044AFB79536000BF0C3742
:10409000BD4680BC704700BF004800400FB480B5EB
:1040A00082B000AF07F114037B607A683969054874
:1040B00000F040F8002318460837BD46BDE88040B0
:1040C00004B07047554000080EB480B585B000AF0D
:1040D00078600B4A7B68136007F12003FB60FA6885
:1040E000F969084800F026F8054B1B6800221A7091
:1040F000002318461437BD46BDE8804003B0704722
:10410000EC0B00200941000880B483B000AF0346E7
:10411000FB71074B1B68FA791A70054B1B6801335A
:10412000034A136000BF0C37BD4680BC704700BF18
:10413000EC0B002080B58AB000AFF860B9607A60FF
:10414000D7E07B6A252B05D07B6ADAB2FB68104684
:104150009847CEE0BB685A1CBA601B787B6200238C
:104160007B617B69BB61BB693B623B6AFB617B6ACC
:10417000252B09D17B6ADAB2FB6810469847BB68E9
:104180005A1CBA601B787B627B6A302B18D1BB68E3
:104190005A1CBA601B787B620123BB6110E0FA698C
:1041A00013469B0013445B001A467B6A303B134462
:1041B000FA691344FB61BB685A1CBA601B787B62C6
:1041C0007B6A2F2B02DD7B6A392BE8DDBB69002B74
:1041D00002D0FB695B42FB617B6A732B11D17B6868
:1041E0001A1D7A601B683B6106E03B695A1C3A6104
:1041F0001A78FB68104698473B691B78002BF4D16E
:1042000077E07B6A632B08D17B681A1D7A601B6894
:10421000DAB2FB68104698476BE07B6A752B06D1D3
:104220000A233B62BB685A1CBA601B787B627B6ABC
:104230006C2B0CD101237B613B6A002B02D16FF008
:1042400009033B62BB685A1CBA601B787B627B6ABD
:10425000002B58D07B6A752B02D10A233B621EE0EB
:104260007B6A642B02D07B6A692B06D13B6A002BE8
:1042700015D16FF009033B6211E07B6A582B02D025
:104280007B6A782B02D110233B6208E07B6A622BA9
:1042900002D102233B6202E0BB68013BBB603B6A88
:1042A000002B00D125E07B69002B16D13B6A002B47
:1042B00009DD7B681A1D7A601868FB68FA69396A3B
:1042C00000F027F815E07B681A1D7A601868FB6813
:1042D000FA69396A00F01DF80BE07B69012B08D1FF
:1042E0007B681A1D7A601868FB68FA69396A00F001
:1042F00010F8BB685A1CBA601B787B627B6A002B83
:104300007FF41FAF00E000BF002318462837BD46EA
:1043100080BD80B58CB000AFF860B9607A603B605A
:10432000002387F82E30202387F82D300023BB622E
:10433000BB68002B0BDABB685B42BB60FB68002BE1
:1043400005DAFB685B42FB602D2387F82E307B6823
:10435000002B05DA7B685B427B60302387F82D30C9
:104360007B68142B6BDCFB68BA68B3FBF2F102FBD1
:1043700001F29B1A87F82F3097F82F30092B05D9B7
:1043800097F82F30373387F82F3004E097F82F3025
:10439000303387F82F30BB6A5A1CBA6207F13002FB
:1043A000134497F82F2003F81C2CFA68BB68B2FB63
:1043B000F3F3FB60FB68002BD5D197F82E30002B70
:1043C00018D097F82D30302B14D0BB6A5A1CBA6223
:1043D00007F13002134497F82E2003F81C2C09E053
:1043E000BB6A5A1CBA6207F13002134497F82D20B9
:1043F00003F81C2CBA6A7B689A42F1DB97F82E30DE
:10440000002B0DD097F82D30302B09D1BB6A5A1CE8
:10441000BA6207F13002134497F82E2003F81C2CDF
:10442000BB6A013BBB6207F11402BB6A13441A78F2
:104430003B6810469847BB6A002BF1D100E000BFF3
:104440003037BD4680BD000080B584B000AF2F4B33
:104450009B692E4A43F0010393612C4B9B6903F047
:104460000103BB60BB68294BDB69284A43F08053DA
:10447000D361264BDB6903F080537B607B680320AC
:1044800002F060FE002201216FF00B0002F065FED9
:10449000002201216FF00A0002F05FFE00220121DC
:1044A0006FF0090002F059FE002201216FF00400B4
:1044B00002F053FE002201216FF0030002F04DFED6
:1044C000002201216FF0010002F047FE00220121CD
:1044D0004FF0FF3002F041FE00220121052002F0E2
:1044E0003CFE052002F055FE094B5B68FB60FB6853
:1044F00023F0E063FB60FB6843F00073FB60044A59
:10450000FB68536000BF1037BD4680BD00100240FD
:104510000000014080B58CB000AF786007F1200347
:1045200000221A605A609A60DA607B681B68504A01
:10453000934269D14F4B9B694E4A43F40073936198
:104540004C4B9B6903F40073FB61FB69494B9B690E
:10455000484A43F004039361464B9B6903F004030C
:10456000BB61BB69434B9B69424A43F008039361BB
:10457000404B9B6903F008037B617B69FF233B622F
:1045800003237B6207F1200319463B4802F0C6F87B
:1045900002233B6203237B6207F12003194637485D
:1045A00002F0BCF8364B374A1A60354B00225A608D
:1045B000334B00229A60324B8022DA60304B4FF44A
:1045C00080721A612E4B4FF480625A612C4B20226C
:1045D0009A612B4B4FF48052DA61294802F082FA3B
:1045E0000346002B01D0FBF74CFA7B68244A1A6281
:1045F000234A7B68536200220021122002F0ADFDA5
:10460000122002F0C6FD2EE07B681B681E4A934212
:1046100029D1184B9B69174A43F480639361154B6A
:104620009B6903F480633B613B69124B9B69114AB0
:1046300043F0040393610F4B9B6903F00403FB6099
:10464000FB6878233B6203237B6207F12003194652
:10465000094802F063F800220021122002F07DFDDB
:10466000122002F096FD00BF3037BD4680BD00BF6E
:10467000002401400010024000080140000C0140ED
:104680001C090020080002400028014080B58CB0C1
:1046900000AF78607B681B68514A934224D1514B2C
:1046A0009B69504A43F4006393614E4B9B6903F44A
:1046B0000063BB61BB6900220221192002F04DFD9D
:1046C000192002F066FD002202211A2002F045FDA9
:1046D0001A2002F05EFD002202211B2002F03DFDA7
:1046E0001B2002F056FD76E07B681B68B3F1804F1B
:1046F00014D13C4BDB693B4A43F00103D361394B96
:10470000DB6903F001037B617B69002202211C202D
:1047100002F023FD1C2002F03CFD5CE07B681B687E
:10472000314A93423ED12F4BDB692E4A43F00203BC
:10473000D3612C4BDB6903F002033B613B69294BDE
:104740009B69284A43F008039361264B9B6903F059
:104750000803FB60FB683123FB6100233B620023FD
:104760007B6207F11C031946204801F0D7FF204B5C
:104770005B68FB62FB6A23F44063FB62FB6A43F005
:10478000E063FB62FB6A43F40063FB62184AFB6A66
:104790005360002202211D2002F0DFFC1D2002F0E8
:1047A000F8FC18E07B681B68124A934213D10D4B4A
:1047B000DB690C4A43F00403D3610A4BDB6903F065
:1047C0000403BB60BB68002202211E2002F0C5FC6E
:1047D0001E2002F0DEFC00BF3037BD4680BD00BFAA
:1047E000002C01400010024000040040000C014079
:1047F000000001400008004080B586B000AF78603E
:104800007B681B68104A934219D14FF46043BB6028
:104810000223FB6002237B6107F1080319460B4862
:1048200001F07CFF4FF4E063BB600223FB600223D6
:104830007B6107F108031946054801F06FFF00BFCF
:104840001837BD4680BD00BF002C0140000C014060
:104850000008014080B58CB000AF786007F11C0300
:1048600000221A605A609A60DA607B681B68A04A6E
:10487000934240F097809F4B9B699E4A43F480434C
:1048800093619C4B9B6903F48043BB61BB69994B6B
:104890009B69984A43F008039361964B9B6903F028
:1048A00008037B617B694023FB6112233B62032386
:1048B000BB6207F11C0319468F4801F02FFF8F4B95
:1048C0005B68FB62FB6A43F0E063FB62FB6A43F0F8
:1048D0000403FB62894AFB6A5360894B894A1A6068
:1048E000874B00225A60864B00229A60844B8022BC
:1048F000DA60834B00221A61814B00225A61804B9F
:1049000020229A617E4B0022DA617D4802F0EAF8AB
:104910000346002B01D0FBF7B4F87B68784A5A6352
:10492000774A7B685362784B784A1A60764B10223C
:104930005A60754B00229A60734B8022DA60724B8A
:1049400000221A61704B00225A616F4B00229A615B
:104950006D4B0022DA616C4802F0C4F80346002B6C
:1049600001D0FBF78EF87B68674A1A63664A7B685A
:10497000536200220221252002F0EFFB252002F0E5
:1049800008FC002202210F2002F0E7FB0F2002F0BA
:1049900000FC012202210E2002F0DFFB0E2002F0BB
:1049A000F8FBA1E07B681B68594A934240F09C8069
:1049B000504BDB694F4A43F48023D3614D4BDB6995
:1049C00003F480233B613B694A4B9B69494A43F0AE
:1049D00008039361474B9B6903F00803FB60FB6886
:1049E0004FF48063FB6102233B620323BB6207F148
:1049F0001C031946404801F091FE4FF40063FB612F
:104A000000233B6200237B6207F11C0319463A48EE
:104A100001F084FE3F4B404A1A603E4B10225A6020
:104A20003C4B00229A603B4B8022DA60394B0022DB
:104A30001A61384B00225A61364B00229A61354B7D
:104A40000022DA61334802F04DF80346002B04D00F
:104A500040F202213148FBF71BF87B682D4A1A63AC
:104A60002C4A7B6853622E4B2E4A1A602C4B002234
:104A70005A602B4B00229A60294B8022DA60284B27
:104A800000221A61264B00225A61254B20229A618E
:104A9000234B0022DA61224802F024F80346002B5F
:104AA00004D040F212211D48FAF7F2FF7B681C4A3D
:104AB0005A631B4A7B68536200220221272002F0BE
:104AC0004CFB272002F065FB002202210D2002F0A2
